S00E0000636F6D6D54782E737265639E
S11300000C942A000C9447000C9447000C9447006D
S11300100C9447000C9447000C9447000C94470040
S11300200C9447000C9447000C9447000C94470030
S11300300C9447000C94FA000C94D3000C944700E1
S11300400C9447000C9447000C9447000C94470010
S11300500C94470011241FBECFE5D8E0DEBFCDBF0E
S113006010E0A0E6B0E0ECE6F2E002C005900D92EC
S1130070A636B107D9F726E0A6E6B0E001C01D9286
S1130080AF34B207E1F70E94B0000C9434010C9431
S11300900000809167009091680020916900309180
S11300A06A008217930798F420916B0030916C00DA
S11300B0F901E80FF91F80810E942A0180916700ED
S11300C0909168000196909368008093670008956A
S11300D01092680010926700109266000895CF9302
S11300E0DF93EC010E9468000E94210189E490E002
S11300F00E942E018881998190936E0080936D00F7
S11301008A819B8190936C0080936B008C819D818C
S113011090936A008093690081E080936600DF9188
S1130120CF91089580916600882391F02091670013
S1130130309168008091690090916A00281739070E
S113014039F410926600E0916D00F0916E0009950B
S113015008958FE60E942A018BE60E942A010895E1
S1130160CF93DF9300D000D000D0CDB7DEB7EFE659
S1130170F0E02BE436E080E081938F5FE217F30731
S1130180D9F786E0E0E6F0E0DE01119601900D92E9
S11301908A95E1F77894899ACE0101960E946F00BE
S11301A00E949200FDCF1F920F920FB60F9211245E
S11301B02F933F934F935F936F937F938F939F936B
S11301C0AF93BF93EF93FF93E0914D06F0914E06EA
S11301D00995FF91EF91BF91AF919F918F917F917D
S11301E06F915F914F913F912F910F900FBE0F90A0
S11301F01F9018951F920F920FB60F9211242F93F0
S11302003F934F935F936F937F938F939F93AF939A
S1130210BF93EF93FF93E0914B06F0914C06099541
S1130220FF91EF91BF91AF919F918F917F916F91CA
S11302305F914F913F912F910F900FBE0F901F90A0
S1130240189589E189B98AB188618AB980B58668C7
S113025080BD08955D9BFECF8CB9089590934E06A2
S10F026080934D06559A0895F894FFCF42
S109026CA9006F00DC058F
S9030000FC
