S00E0000436F6D6D52582E73726563E0
S11300000C942A000C9447000C9447000C9447006D
S11300100C9447000C9447000C9447000C94470040
S11300200C9447000C9447000C9447000C94470030
S11300300C9447000C943E010C9417010C94470057
S11300400C9447000C9447000C9447000C94470010
S11300500C94470011241FBECFE5D8E0DEBFCDBF0E
S113006010E0A0E6B0E0ECEFF2E002C005900D92E3
S1130070A436B107D9F720E0A4E6B0E001C01D9290
S1130080A53DB207E1F70E940A010C947C010C948F
S11300900000CF93DF9381E08093680080916B0030
S11300A0811112C0C0916900D0916A00C436D10593
S11300B058F4CE01019690936A00809369000E94DF
S11300C07201C359DF4F8883DF91CF910895109255
S11300D06B0010926C0010926A00109269001092EA
S11300E06800109267001092660008950F931F93A2
S11300F0CF93DF938C01EB010E9467000E9465019E
S113010089E490E00E9476011093650000936400F6
S1130110D0936700C0936600DF91CF911F910F9138
S1130120089580916800882309F45EC080916C0072
S1130130813039F0B0F08230C1F1833009F447C026
S11301400895E0916600F0916700CF0101969093C5
S1130150670080936600908180916D00981759F034
S113016041C08091690090916A000497E8F181E0B0
S113017080936C000895CF01029630916E00218126
S1130180321306C00196328120916F00321729F094
S1130190909367008093660025C0909367008093D6
S11301A0660082E080936C000895809169009091CC
S11301B06A008436910520F482E080936C000895EF
S11301C08436910589F483E080936C00089581E07E
S11301D080936B00E0916400F091650081E790E00A
S11301E00995089510926C0008950F931F93CF936F
S11301F0DF93EC018C01035A1F4F89910E946E0119
S1130200C017D107D1F70E946700DF91CF911F91EA
S11302100F9108958FEF87BB899A789460E670E018
S113022085EF90E00E9476000E949100FDCF1F921E
S11302300F920FB60F9211242F933F934F935F9316
S11302406F937F938F939F93AF93BF93EF93FF939A
S1130250E091D300F091D4000995FF91EF91BF9103
S1130260AF919F918F917F916F915F914F913F914A
S11302702F910F900FBE0F901F9018951F920F9201
S11302800FB60F9211242F933F934F935F936F9365
S11302907F938F939F93AF93BF93EF93FF93E091DB
S11302A0D100F091D2000995FF91EF91BF91AF91E8
S11302B09F918F917F916F915F914F913F912F917A
S11302C00F900FBE0F901F90189589E189B98AB1DC
S11302D088618AB980B5866880BD08955D9BFECF2C
S11302E08CB908955F9BFECF8CB108959093D20092
S10F02F08093D100579A0895F894FFCF32
S10702FC01020300F4
S9030000FC
